{
  "_format": "hh-sol-artifact-1",
  "contractName": "SimpleDEX",
  "sourceName": "contracts/SimpleDEX.sol",
  "abi": [
    {
      "inputs": [
        {
          "internalType": "address",
          "name": "token",
          "type": "address"
        }
      ],
      "name": "SafeERC20FailedOperation",
      "type": "error"
    },
    {
      "inputs": [
        {
          "internalType": "contract IERC20",
          "name": "tokenA",
          "type": "address"
        },
        {
          "internalType": "contract IERC20",
          "name": "tokenB",
          "type": "address"
        },
        {
          "internalType": "uint256",
          "name": "amountA",
          "type": "uint256"
        },
        {
          "internalType": "uint256",
          "name": "amountB",
          "type": "uint256"
        }
      ],
      "name": "addLiquidity",
      "outputs": [
        {
          "internalType": "uint256",
          "name": "liquidity",
          "type": "uint256"
        }
      ],
      "stateMutability": "nonpayable",
      "type": "function"
    },
    {
      "inputs": [
        {
          "internalType": "contract IERC20",
          "name": "tokenA",
          "type": "address"
        },
        {
          "internalType": "contract IERC20",
          "name": "tokenB",
          "type": "address"
        }
      ],
      "name": "createPool",
      "outputs": [],
      "stateMutability": "nonpayable",
      "type": "function"
    },
    {
      "inputs": [
        {
          "internalType": "contract IERC20",
          "name": "tokenA",
          "type": "address"
        },
        {
          "internalType": "contract IERC20",
          "name": "tokenB",
          "type": "address"
        }
      ],
      "name": "getPrice",
      "outputs": [
        {
          "internalType": "uint256",
          "name": "price",
          "type": "uint256"
        }
      ],
      "stateMutability": "view",
      "type": "function"
    },
    {
      "inputs": [
        {
          "internalType": "contract IERC20",
          "name": "",
          "type": "address"
        },
        {
          "internalType": "contract IERC20",
          "name": "",
          "type": "address"
        }
      ],
      "name": "poolIds",
      "outputs": [
        {
          "internalType": "bytes32",
          "name": "",
          "type": "bytes32"
        }
      ],
      "stateMutability": "view",
      "type": "function"
    },
    {
      "inputs": [
        {
          "internalType": "bytes32",
          "name": "",
          "type": "bytes32"
        }
      ],
      "name": "pools",
      "outputs": [
        {
          "internalType": "contract IERC20",
          "name": "tokenA",
          "type": "address"
        },
        {
          "internalType": "contract IERC20",
          "name": "tokenB",
          "type": "address"
        },
        {
          "internalType": "uint256",
          "name": "reserveA",
          "type": "uint256"
        },
        {
          "internalType": "uint256",
          "name": "reserveB",
          "type": "uint256"
        },
        {
          "internalType": "uint256",
          "name": "totalSupply",
          "type": "uint256"
        }
      ],
      "stateMutability": "view",
      "type": "function"
    },
    {
      "inputs": [
        {
          "internalType": "contract IERC20",
          "name": "tokenA",
          "type": "address"
        },
        {
          "internalType": "contract IERC20",
          "name": "tokenB",
          "type": "address"
        },
        {
          "internalType": "uint256",
          "name": "liquidity",
          "type": "uint256"
        }
      ],
      "name": "removeLiquidity",
      "outputs": [
        {
          "internalType": "uint256",
          "name": "amountA",
          "type": "uint256"
        },
        {
          "internalType": "uint256",
          "name": "amountB",
          "type": "uint256"
        }
      ],
      "stateMutability": "nonpayable",
      "type": "function"
    },
    {
      "inputs": [
        {
          "internalType": "contract IERC20",
          "name": "inputToken",
          "type": "address"
        },
        {
          "internalType": "contract IERC20",
          "name": "outputToken",
          "type": "address"
        },
        {
          "internalType": "uint256",
          "name": "inputAmount",
          "type": "uint256"
        }
      ],
      "name": "swap",
      "outputs": [
        {
          "internalType": "uint256",
          "name": "outputAmount",
          "type": "uint256"
        }
      ],
      "stateMutability": "nonpayable",
      "type": "function"
    }
  ],
  "bytecode": "0x608060405234801561001057600080fd5b50612147806100206000396000f3fe608060405234801561001057600080fd5b506004361061007d5760003560e01c8063cf6c62ea1161005b578063cf6c62ea14610116578063d752fab214610146578063df791e5014610177578063e3433615146101a75761007d565b80636534d8dc14610082578063ac41865a146100b2578063b5217bb4146100e2575b600080fd5b61009c600480360381019061009791906117a9565b6101c3565b6040516100a99190611802565b60405180910390f35b6100cc60048036038101906100c791906117a9565b6101e8565b6040516100d99190611836565b60405180910390f35b6100fc60048036038101906100f7919061187d565b610432565b60405161010d959493929190611909565b60405180910390f35b610130600480360381019061012b9190611988565b6104a8565b60405161013d9190611836565b60405180910390f35b610160600480360381019061015b91906119ef565b610810565b60405161016e929190611a42565b60405180910390f35b610191600480360381019061018c91906119ef565b610bb4565b60405161019e9190611836565b60405180910390f35b6101c160048036038101906101bc91906117a9565b611116565b005b6001602052816000526040600020602052806000526040600020600091509150505481565b600080600160008573ffffffffffffffffffffffffffffffffffffffff1673ffffffffffffffffffffffffffffffffffffffff16815260200190815260200160002060008473ffffffffffffffffffffffffffffffffffffffff1673ffffffffffffffffffffffffffffffffffffffff168152602001908152602001600020549050600073ffffffffffffffffffffffffffffffffffffffff1660008083815260200190815260200160002060000160009054906101000a900473ffffffffffffffffffffffffffffffffffffffff1673ffffffffffffffffffffffffffffffffffffffff160361030e576040517f08c379a000000000000000000000000000000000000000000000000000000000815260040161030590611ac8565b60405180910390fd5b600080600083815260200190815260200160002090506000816002015411801561033c575060008160030154115b61037b576040517f08c379a000000000000000000000000000000000000000000000000000000000815260040161037290611b34565b60405180910390fd5b8060000160009054906101000a900473ffffffffffffffffffffffffffffffffffffffff1673ffffffffffffffffffffffffffffffffffffffff168573ffffffffffffffffffffffffffffffffffffffff1603610400578060020154670de0b6b3a764000082600301546103ef9190611b83565b6103f99190611bf4565b925061042a565b8060030154670de0b6b3a7640000826002015461041d9190611b83565b6104279190611bf4565b92505b505092915050565b60006020528060005260406000206000915090508060000160009054906101000a900473ffffffffffffffffffffffffffffffffffffffff16908060010160009054906101000a900473ffffffffffffffffffffffffffffffffffffffff16908060020154908060030154908060040154905085565b600080600160008773ffffffffffffffffffffffffffffffffffffffff1673ffffffffffffffffffffffffffffffffffffffff16815260200190815260200160002060008673ffffffffffffffffffffffffffffffffffffffff1673ffffffffffffffffffffffffffffffffffffffff168152602001908152602001600020549050600073ffffffffffffffffffffffffffffffffffffffff1660008083815260200190815260200160002060000160009054906101000a900473ffffffffffffffffffffffffffffffffffffffff1673ffffffffffffffffffffffffffffffffffffffff16036105ce576040517f08c379a00000000000000000000000000000000000000000000000000000000081526004016105c590611ac8565b60405180910390fd5b600080600083815260200190815260200160002090508060000160009054906101000a900473ffffffffffffffffffffffffffffffffffffffff1673ffffffffffffffffffffffffffffffffffffffff168773ffffffffffffffffffffffffffffffffffffffff16146106505785878097508198505050838580955081965050505b61067d3330878a73ffffffffffffffffffffffffffffffffffffffff166114fe909392919063ffffffff16565b6106aa3330868973ffffffffffffffffffffffffffffffffffffffff166114fe909392919063ffffffff16565b848160020160008282546106be9190611c25565b92505081905550838160030160008282546106d99190611c25565b9250508190555060008160040154036107075761070084866106fb9190611b83565b611580565b9250610750565b61074d816002015482600401548761071f9190611b83565b6107299190611bf4565b826003015483600401548761073e9190611b83565b6107489190611bf4565b6115fa565b92505b60008311610793576040517f08c379a000000000000000000000000000000000000000000000000000000000815260040161078a90611ca5565b60405180910390fd5b828160040160008282546107a79190611c25565b92505081905550828160050160003373ffffffffffffffffffffffffffffffffffffffff1673ffffffffffffffffffffffffffffffffffffffff16815260200190815260200160002060008282546107ff9190611c25565b925050819055505050949350505050565b6000806000600160008773ffffffffffffffffffffffffffffffffffffffff1673ffffffffffffffffffffffffffffffffffffffff16815260200190815260200160002060008673ffffffffffffffffffffffffffffffffffffffff1673ffffffffffffffffffffffffffffffffffffffff168152602001908152602001600020549050600073ffffffffffffffffffffffffffffffffffffffff1660008083815260200190815260200160002060000160009054906101000a900473ffffffffffffffffffffffffffffffffffffffff1673ffffffffffffffffffffffffffffffffffffffff1603610938576040517f08c379a000000000000000000000000000000000000000000000000000000000815260040161092f90611ac8565b60405180910390fd5b60008060008381526020019081526020016000209050848160050160003373ffffffffffffffffffffffffffffffffffffffff1673ffffffffffffffffffffffffffffffffffffffff1681526020019081526020016000205410156109d2576040517f08c379a00000000000000000000000000000000000000000000000000000000081526004016109c990611b34565b60405180910390fd5b80600401548160020154866109e79190611b83565b6109f19190611bf4565b93508060040154816003015486610a089190611b83565b610a129190611bf4565b9250600084118015610a245750600083115b610a63576040517f08c379a0000000000000000000000000000000000000000000000000000000008152600401610a5a90611b34565b60405180910390fd5b84816004016000828254610a779190611cc5565b92505081905550848160050160003373ffffffffffffffffffffffffffffffffffffffff1673ffffffffffffffffffffffffffffffffffffffff1681526020019081526020016000206000828254610acf9190611cc5565b9250508190555083816002016000828254610aea9190611cc5565b9250508190555082816003016000828254610b059190611cc5565b92505081905550610b5b33858360000160009054906101000a900473ffffffffffffffffffffffffffffffffffffffff1673ffffffffffffffffffffffffffffffffffffffff166116139092919063ffffffff16565b610baa33848360010160009054906101000a900473ffffffffffffffffffffffffffffffffffffffff1673ffffffffffffffffffffffffffffffffffffffff166116139092919063ffffffff16565b5050935093915050565b600080600160008673ffffffffffffffffffffffffffffffffffffffff1673ffffffffffffffffffffffffffffffffffffffff16815260200190815260200160002060008573ffffffffffffffffffffffffffffffffffffffff1673ffffffffffffffffffffffffffffffffffffffff168152602001908152602001600020549050600073ffffffffffffffffffffffffffffffffffffffff1660008083815260200190815260200160002060000160009054906101000a900473ffffffffffffffffffffffffffffffffffffffff1673ffffffffffffffffffffffffffffffffffffffff1603610cda576040517f08c379a0000000000000000000000000000000000000000000000000000000008152600401610cd190611ac8565b60405180910390fd5b600080600083815260200190815260200160002090508060000160009054906101000a900473ffffffffffffffffffffffffffffffffffffffff1673ffffffffffffffffffffffffffffffffffffffff168673ffffffffffffffffffffffffffffffffffffffff161480610d9d57508060010160009054906101000a900473ffffffffffffffffffffffffffffffffffffffff1673ffffffffffffffffffffffffffffffffffffffff168673ffffffffffffffffffffffffffffffffffffffff16145b610ddc576040517f08c379a0000000000000000000000000000000000000000000000000000000008152600401610dd390611d45565b60405180910390fd5b8060000160009054906101000a900473ffffffffffffffffffffffffffffffffffffffff1673ffffffffffffffffffffffffffffffffffffffff168573ffffffffffffffffffffffffffffffffffffffff161480610e8957508060010160009054906101000a900473ffffffffffffffffffffffffffffffffffffffff1673ffffffffffffffffffffffffffffffffffffffff168573ffffffffffffffffffffffffffffffffffffffff16145b610ec8576040517f08c379a0000000000000000000000000000000000000000000000000000000008152600401610ebf90611db1565b60405180910390fd5b8473ffffffffffffffffffffffffffffffffffffffff168673ffffffffffffffffffffffffffffffffffffffff1603610f36576040517f08c379a0000000000000000000000000000000000000000000000000000000008152600401610f2d90611e43565b60405180910390fd5b60008160000160009054906101000a900473ffffffffffffffffffffffffffffffffffffffff1673ffffffffffffffffffffffffffffffffffffffff168773ffffffffffffffffffffffffffffffffffffffff1614905060008082610fa45783600301548460020154610faf565b836002015484600301545b91509150610fe03330898c73ffffffffffffffffffffffffffffffffffffffff166114fe909392919063ffffffff16565b60006103e588610ff09190611b83565b9050806103e8846110019190611b83565b61100b9190611c25565b82826110179190611b83565b6110219190611bf4565b965060008711611066576040517f08c379a000000000000000000000000000000000000000000000000000000000815260040161105d90611eaf565b60405180910390fd5b83156110a757878560020160008282546110809190611c25565b925050819055508685600301600082825461109b9190611cc5565b925050819055506110de565b878560030160008282546110bb9190611c25565b92505081905550868560020160008282546110d69190611cc5565b925050819055505b61110933888b73ffffffffffffffffffffffffffffffffffffffff166116139092919063ffffffff16565b5050505050509392505050565b8073ffffffffffffffffffffffffffffffffffffffff168273ffffffffffffffffffffffffffffffffffffffff1603611184576040517f08c379a000000000000000000000000000000000000000000000000000000000815260040161117b90611f1b565b60405180910390fd5b600073ffffffffffffffffffffffffffffffffffffffff168273ffffffffffffffffffffffffffffffffffffffff16141580156111ee5750600073ffffffffffffffffffffffffffffffffffffffff168173ffffffffffffffffffffffffffffffffffffffff1614155b61122d576040517f08c379a000000000000000000000000000000000000000000000000000000000815260040161122490611f87565b60405180910390fd5b60008282604051602001611242929190611fef565b604051602081830303815290604052805190602001209050600073ffffffffffffffffffffffffffffffffffffffff1660008083815260200190815260200160002060000160009054906101000a900473ffffffffffffffffffffffffffffffffffffffff1673ffffffffffffffffffffffffffffffffffffffff16146112fe576040517f08c379a00000000000000000000000000000000000000000000000000000000081526004016112f590612067565b60405180910390fd5b8260008083815260200190815260200160002060000160006101000a81548173ffffffffffffffffffffffffffffffffffffffff021916908373ffffffffffffffffffffffffffffffffffffffff1602179055508160008083815260200190815260200160002060010160006101000a81548173ffffffffffffffffffffffffffffffffffffffff021916908373ffffffffffffffffffffffffffffffffffffffff16021790555060008060008381526020019081526020016000206002018190555060008060008381526020019081526020016000206003018190555060008060008381526020019081526020016000206004018190555080600160008573ffffffffffffffffffffffffffffffffffffffff1673ffffffffffffffffffffffffffffffffffffffff16815260200190815260200160002060008473ffffffffffffffffffffffffffffffffffffffff1673ffffffffffffffffffffffffffffffffffffffff1681526020019081526020016000208190555080600160008473ffffffffffffffffffffffffffffffffffffffff1673ffffffffffffffffffffffffffffffffffffffff16815260200190815260200160002060008573ffffffffffffffffffffffffffffffffffffffff1673ffffffffffffffffffffffffffffffffffffffff16815260200190815260200160002081905550505050565b61157a848573ffffffffffffffffffffffffffffffffffffffff166323b872dd86868660405160240161153393929190612096565b604051602081830303815290604052915060e01b6020820180517bffffffffffffffffffffffffffffffffffffffffffffffffffffffff8381831617835250505050611692565b50505050565b600060038211156115e7578190506000600160028461159f9190611bf4565b6115a99190611c25565b90505b818110156115e15780915060028182856115c69190611bf4565b6115d09190611c25565b6115da9190611bf4565b90506115ac565b506115f5565b600082146115f457600190505b5b919050565b6000818310611609578161160b565b825b905092915050565b61168d838473ffffffffffffffffffffffffffffffffffffffff1663a9059cbb85856040516024016116469291906120cd565b604051602081830303815290604052915060e01b6020820180517bffffffffffffffffffffffffffffffffffffffffffffffffffffffff8381831617835250505050611692565b505050565b600080602060008451602086016000885af1806116b5576040513d6000823e3d81fd5b3d9250600051915050600082146116d05760018114156116ec565b60008473ffffffffffffffffffffffffffffffffffffffff163b145b1561172e57836040517f5274afe700000000000000000000000000000000000000000000000000000000815260040161172591906120f6565b60405180910390fd5b50505050565b600080fd5b600073ffffffffffffffffffffffffffffffffffffffff82169050919050565b600061176482611739565b9050919050565b600061177682611759565b9050919050565b6117868161176b565b811461179157600080fd5b50565b6000813590506117a38161177d565b92915050565b600080604083850312156117c0576117bf611734565b5b60006117ce85828601611794565b92505060206117df85828601611794565b9150509250929050565b6000819050919050565b6117fc816117e9565b82525050565b600060208201905061181760008301846117f3565b92915050565b6000819050919050565b6118308161181d565b82525050565b600060208201905061184b6000830184611827565b92915050565b61185a816117e9565b811461186557600080fd5b50565b60008135905061187781611851565b92915050565b60006020828403121561189357611892611734565b5b60006118a184828501611868565b91505092915050565b6000819050919050565b60006118cf6118ca6118c584611739565b6118aa565b611739565b9050919050565b60006118e1826118b4565b9050919050565b60006118f3826118d6565b9050919050565b611903816118e8565b82525050565b600060a08201905061191e60008301886118fa565b61192b60208301876118fa565b6119386040830186611827565b6119456060830185611827565b6119526080830184611827565b9695505050505050565b6119658161181d565b811461197057600080fd5b50565b6000813590506119828161195c565b92915050565b600080600080608085870312156119a2576119a1611734565b5b60006119b087828801611794565b94505060206119c187828801611794565b93505060406119d287828801611973565b92505060606119e387828801611973565b91505092959194509250565b600080600060608486031215611a0857611a07611734565b5b6000611a1686828701611794565b9350506020611a2786828701611794565b9250506040611a3886828701611973565b9150509250925092565b6000604082019050611a576000830185611827565b611a646020830184611827565b9392505050565b600082825260208201905092915050565b7f506f6f6c20646f6573206e6f7420657869737400000000000000000000000000600082015250565b6000611ab2601383611a6b565b9150611abd82611a7c565b602082019050919050565b60006020820190508181036000830152611ae181611aa5565b9050919050565b7f496e73756666696369656e74206c697175696469747900000000000000000000600082015250565b6000611b1e601683611a6b565b9150611b2982611ae8565b602082019050919050565b60006020820190508181036000830152611b4d81611b11565b9050919050565b7f4e487b7100000000000000000000000000000000000000000000000000000000600052601160045260246000fd5b6000611b8e8261181d565b9150611b998361181d565b9250828202611ba78161181d565b91508282048414831517611bbe57611bbd611b54565b5b5092915050565b7f4e487b7100000000000000000000000000000000000000000000000000000000600052601260045260246000fd5b6000611bff8261181d565b9150611c0a8361181d565b925082611c1a57611c19611bc5565b5b828204905092915050565b6000611c308261181d565b9150611c3b8361181d565b9250828201905080821115611c5357611c52611b54565b5b92915050565b7f496e73756666696369656e74206c69717569646974792070726f766964656400600082015250565b6000611c8f601f83611a6b565b9150611c9a82611c59565b602082019050919050565b60006020820190508181036000830152611cbe81611c82565b9050919050565b6000611cd08261181d565b9150611cdb8361181d565b9250828203905081811115611cf357611cf2611b54565b5b92915050565b7f496e76616c696420696e70757420746f6b656e00000000000000000000000000600082015250565b6000611d2f601383611a6b565b9150611d3a82611cf9565b602082019050919050565b60006020820190508181036000830152611d5e81611d22565b9050919050565b7f496e76616c6964206f757470757420746f6b656e000000000000000000000000600082015250565b6000611d9b601483611a6b565b9150611da682611d65565b602082019050919050565b60006020820190508181036000830152611dca81611d8e565b9050919050565b7f496e70757420616e64206f757470757420746f6b656e73206d7573742062652060008201527f646966666572656e740000000000000000000000000000000000000000000000602082015250565b6000611e2d602983611a6b565b9150611e3882611dd1565b604082019050919050565b60006020820190508181036000830152611e5c81611e20565b9050919050565b7f496e73756666696369656e74206f757470757420616d6f756e74000000000000600082015250565b6000611e99601a83611a6b565b9150611ea482611e63565b602082019050919050565b60006020820190508181036000830152611ec881611e8c565b9050919050565b7f546f6b656e73206d75737420626520646966666572656e740000000000000000600082015250565b6000611f05601883611a6b565b9150611f1082611ecf565b602082019050919050565b60006020820190508181036000830152611f3481611ef8565b9050919050565b7f496e76616c696420746f6b656e20616464726573730000000000000000000000600082015250565b6000611f71601583611a6b565b9150611f7c82611f3b565b602082019050919050565b60006020820190508181036000830152611fa081611f64565b9050919050565b60008160601b9050919050565b6000611fbf82611fa7565b9050919050565b6000611fd182611fb4565b9050919050565b611fe9611fe4826118e8565b611fc6565b82525050565b6000611ffb8285611fd8565b60148201915061200b8284611fd8565b6014820191508190509392505050565b7f506f6f6c20616c72656164792065786973747300000000000000000000000000600082015250565b6000612051601383611a6b565b915061205c8261201b565b602082019050919050565b6000602082019050818103600083015261208081612044565b9050919050565b61209081611759565b82525050565b60006060820190506120ab6000830186612087565b6120b86020830185612087565b6120c56040830184611827565b949350505050565b60006040820190506120e26000830185612087565b6120ef6020830184611827565b9392505050565b600060208201905061210b6000830184612087565b9291505056fea26469706673582212200fd978d02ad41d1c8134db5e609b36be764fa9d14df958eba67382983a73286b64736f6c63430008180033",
  "linkReferences": {},
  "deployedLinkReferences": {}
}